S00C0000525753312E73726563EB
S113000012C02CC02BC02AC029C028C027C026C0BB
S113001025C024C023C0E3C0BBC020C01FC01EC075
S11300201DC01CC01BC011241FBECFE5D4E0DEBF21
S1130030CDBF10E0A0E6B0E0ECE1F2E002C0059034
S11300400D92A437B107D9F721E0A4E7B0E001C0CD
S11300501D92A933B207E1F702D0DEC0D1CF8C9A4A
S1130060B89AC0982FE788E391E0215080409040EF
S1130070E1F700C00000C09AF8946CE070E080E002
S113008090E038D029D0789480E690E073D08DE069
S113009053D08AE051D0C0E180E34ED08DE04CD003
S11300A08AE04AD082B38C2782BBC09880ED1ED0F0
S11300B043D0C09A8DE040D08AE03ED08DE03CD061
S11300C08AE03AD02FE78AE196E0215080409040C0
S11300D0E1F700C00000E0CF88B38C6288BB1DB894
S11300E01EB8709A8DB183658DB908958FB9779BC9
S11300F0FECF08950F931F931BB81AB810BC072F97
S1130100182F292F332700BD69B982E08BB988E9FC
S11301108AB91092740010927500109276001092B1
S11301207700109278001F910F91089580917800C4
S113013090917700891B08951F93CF93DF93182F15
S1130140C0E4D0E0F3DF9E01281B310923303105E0
S1130150CCF3E0917800EF73F0E0E750FF4F1083A9
S1130160809178008F5F80937800559ADF91CF91CA
S11301701F910895CF93DF93EC018881882329F0A0
S11301802196DADF89918111FCCFDF91CF91089517
S11301901F920F920FB60F9211248F939F93EF9398
S11301A0FF939091780080917700981771F0E09117
S11301B07700EF73F0E0E750FF4F80818CB98091B6
S11301C077008F5F8093770001C05598FF91EF917E
S11301D09F918F910F900FBE0F901F9018951F92B3
S11301E00F920FB60F9211248F93EF93FF93E09128
S11301F07600EF77F0E08CB1E758FF4F8083809171
S113020076008F5F80937600FF91EF918F910F902E
S10F02100FBE0F901F901895F894FFCFBC
S113021C4472697665727320696E697469616C697C
S107022C7A65640087
S9030000FC
