S00C0000525753312E73726563EB
S113000012C021C020C01FC01EC01DC01CC01BC008
S11300101AC019C018C042C01AC015C014C013C0F9
S113002012C011C010C011241FBECFE5D4E0DEBF42
S1130030CDBF21E0A0E6B0E001C01D92A332B2071B
S1130040E1F702D048C0DCCFF8947894FFCF1F9238
S11300500F920FB60F9211248F939F93EF93FF93F8
S11300609091620080916100981771F0E0916100B5
S1130070EF73F0E0ED51FF4F80818CB98091610006
S11300808F5F8093610001C05598FF91EF919F911C
S11300908F910F900FBE0F901F9018951F920F9283
S11300A00FB60F9211248F93EF93FF93E0916000AA
S11300B0EF77F0E08CB1ED59FF4F808380916000C1
S11300C08F5F80936000FF91EF918F910F900FBE2F
S10D00D00F901F901895F894FFCFCD
S9030000FC
