S00C0000525753312E73726563EB
S113000012C021C020C081C91EC01DC01CC01BC09D
S11300101AC019C018C007CADFC915C014C013C05C
S113002012C011C010C011241FBECFE5D4E0DEBF42
S1130030CDBF21E0A0E6B0E001C01D92AD35B2070E
S1130040E1F7C6D85ACADCCFFC01009781F083815E
S11300509481892B71F085819681892B61F081E0EF
S113006027813085232B09F080E0819508958FEF57
S113007008958FEF08958FEF0895DF92EF92FF9226
S11300800F931F93CF93DF93D82E8B017A01E9014D
S1130090C901DADF81110FC08A81813019F08D2DF9
S11300A08068D82EEB81FC819701A8016D2D898190
S11300B0099581118CEFDF91CF911F910F91FF90E2
S11300C0EF90DF9008958F929F92AF92BF92DF924C
S11300D0EF92FF920F931F93CF93DF93CDB7DEB7C9
S11300E064970FB6F894DEBF0FBECDBF8C015B01E1
S11300F07901D42E8AE0841720F40F2EFAE0DF2E43
S1130100F02DC701A1DF811158C00115110509F4B3
S113011056C0A114B10409F454C0DD2009F453C03D
S1130120D5018C918983F7018281813051F0902F20
S1130130E02FF12F80818F7781938E2F891B8D156E
S1130140C8F3F1E0FD1530F548018FEF881A980ADD
S1130150B5016F5F7F4FFE0133968EEF8D0D9801D1
S11301602E5F3F4F280F311DD4014D914D01CF011A
S11301700197DC014C93DB018D91BD0180833296A4
S11301808216930689F72D2D30E0220F331F21505C
S1130190310902C02D2D30E0D7011596ED91FC9167
S11301A01697AE014F5F5F4FD8016C91D70111963E
S11301B08C910995882351F008C08FEF07C08FEF09
S11301C005C08FEF03C08DEF01C08CEF64960FB6AE
S11301D0F894DEBF0FBECDBFDF91CF911F910F9179
S11301E0FF90EF90DF90BF90AF909F908F90089515
S11301F0DF92EF92FF920F931F93CF93DF9300D080
S11302001F92CDB7DEB7D82E7B018A0182FF24C0AE
S113021082EF8983FB01828187708B839A0141E09D
S1130220BE016D5F7F4FCE0101964DDF811115C078
S113023084EF8983980141E050E0BE016E5F7F4FF7
S11302401CDF81110AC0980141E0BE016E5F7F4F3F
S1130250CE01019638DF01C081E09D2D937051F1EC
S113026084EF8A83980141E050E0BE016F5F7F4FC5
S113027004DF81111FC0D0FE09C0F7019081990FDE
S1130280990F9C718981837E892B8983D1FE0AC051
S1130290F7018181F0E28F9FC001112499819F7140
S11302A0892B8983980141E0BE016F5F7F4FCE01A6
S11302B0029609DF0F900F900F90DF91CF911F915D
S11302C00F91FF90EF90DF900895DF92EF92FF92ED
S11302D00F931F93CF93DF9300D0CDB7DEB7D82E03
S11302E07B018A0185EF89839A0141E050E0BE01D8
S11302F06E5F7F4FC2DE81111FC0D3FE09C0F701BC
S11303009381990F990F9C718A81837E892B8A83AB
S1130310D4FE0AC0F7018481F0E28F9FC00111244A
S11303209A819F71892B8A83980141E0BE016E5F97
S11303307F4FCE010196C7DE0F900F90DF91CF91D2
S11303401F910F91FF90EF90DF9008950F931F93EB
S1130350CF93DF938C01EB01CB0176DE81110AC0D0
S11303609E0141E050E0B80184EF87DEF8019081FE
S113037093709083DF91CF911F910F910895FF9215
S11303800F931F93CF93DF9300D0CDB7DEB78C01CB
S113039080EE898386EB8A83C80156DEF82E8111AC
S11303A013C0980141E0BE016E5F7F4FCE010196FC
S11303B08ADEF82ED8011796ED91FC91189762E029
S11303C070E080E090E009958F2D0F900F90DF9101
S11303D0CF911F910F91FF900895FF920F931F9358
S11303E0CF93DF93CDB7DEB76B970FB6F894DEBF2C
S11303F00FBECDBF8C01198227DE8111E4C00F2E00
S1130400F5E0FF2EF02D980141E050E0BE016F5F52
S11304107F4F80ED32DE8111C6C08981803609F0BC
S1130420C2C0D8018C93C801AADF8111C9C0BE0122
S11304306E5F7F4F8AE1FB0111928A95E9F798017B
S11304404AE150E088E819DE8111BAC08B8190E05E
S1130450982F88272A81822BD8011A969C938E93F1
S113046019978D8190E0982F88272C81822B1C96D8
S11304709C938E931B978F8190E0982F88272E81D1
S1130480822B1E969C938E931D97898590E0982FBE
S113049088272885822B50969C938E931F978B8553
S11304A090E0982F88272A85822B52969C938E93CE
S11304B051978D8590E0982F88272C85822B549610
S11304C09C938E9353978F8590E0982F88272E8541
S11304D0822B56969C938E935597898990E0982FFA
S11304E088272889822B58969C938E9357978B89BB
S11304F090E0982F88272A89822B5A969C938E9372
S113050059978D8990E0982F88272C89822B5C96A7
S11305109C938E935B978F8990E0982F88272E89E0
S1130520822B5E969C938E935D97898D90E0982F95
S11305308827288D822B90969C938E935F978B8D22
S113054091968C93980147E050E0BE016E5F7F4F17
S113055081EE93DD811134C02B8130E0322F2227CC
S11305609A81292BF80133A322A39C8194A39E8111
S11305702D81F0E12F0290011124492F4F70242B7B
S1130580D80196963C932E9395972F81B0E12B0238
S11305909001112492959F70292BF80130A727A36D
S11305A0988591A70DC0D8011796ED91FC911897E5
S11305B061E070E080E090E00995FA9419F023CFAF
S11305C0F11001C08EEF6B960FB6F894DEBF0FBE2C
S11305D0CDBFDF91CF911F910F91FF9008950F939D
S11305E01F93CF93DF93CDB7DEB729970FB6F89457
S11305F0DEBF0FBECDBF8C019C0144E050E0BE01C4
S11306006F5F7F4F82EF39DD81112FC08981877041
S11306108F832B81822F8C7190E09595879595958A
S113062087958D832295269527702E832C81822F82
S11306308C7190E0959587959595879588872295F7
S1130640269527702987C8019ADE81110EC0A8015A
S1130650BE016B5F7F4F8FE1CBDD811106C0A80126
S1130660BE016B5F7F4F8FE130DE29960FB6F894A1
S1130670DEBF0FBECDBFDF91CF911F910F910895C3
S1130680EF92FF920F931F93CF93DF931F92CDB7F7
S1130690DEB7E82E8B01CB01D7DCF82E811127C001
S11306A0B801CE01019652DEF82E811120C0898155
S11306B0882321F0C80193DF811116C08E2D877025
S11306C041F0A801B801625D7F4F8E2D91DD81114B
S11306D00DC08E2D887159F0B801625D7F4FA8015D
S11306E08E2DF3DDF82E03C0F82E01C0F82E8F2DC9
S11306F00F90DF91CF911F910F91FF90EF9008958C
S1130700FF920F931F93CF93DF9300D01F92CDB727
S1130710DEB7F82E8B01CB0197DC811127C0B8011D
S1130720CE01019613DE811121C08981882321F035
S1130730C80155DF81111AC084EF8B83980141E011
S113074050E0BE016E5F7F4F98DC81110FC09F2D7A
S113075093708A818C7FF92EF82AFA82980141E0FD
S1130760BE016E5F7F4FCE010396ADDC0F900F90FC
S11307700F90DF91CF911F910F91FF900895CF9328
S1130780DF93FC01EB01818190E0A0E0B0E0880FF1
S1130790991FAA1FBB1F880F991FAA1FBB1F880F71
S11307A0991FAA1FBB1F880F991FAA1FBB1F408137
S11307B050E060E070E0032E3CE0440F551F661FDC
S11307C0771F3A95D1F7302D842B952BA62BB72B79
S11307D0228122952F70822B88839983AA83BB83DD
S11307E0848190E0A0E0B0E0880F991FAA1FBB1F8E
S11307F0880F991FAA1FBB1F880F991FAA1FBB1F11
S1130800880F991FAA1FBB1F438150E060E070E06E
S1130810032E3CE0440F551F661F771F3A95D1F70E
S1130820302D842B952BA62BB72B258122952F7049
S1130830822B8C839D83AE83BF83868190E0A0E06E
S1130840B0E0BA2FA92F982F88272781822B888779
S11308509987AA87BB87DF91CF9108952F923F9202
S11308604F925F926F927F928F929F92AF92BF92BC
S1130870CF92DF92EF92FF920F931F93CF93DF9368
S1130880CDB7DEB729970FB6F894DEBF0FBECDBF44
S113089089838B011A013F832E836115710509F445
S11308A011C44115510509F40FC42115310509F48A
S11308B00DC4DA0114961D921D921D921C92179775
S11308C0FA01108211821282138218961D921D92CF
S11308D01D921C921B97877009F4C2C0FB0184808F
S11308E09580A680B780D901CD90DC90E12CF12CC5
S11308F0D701C601880F991FAA1FBB1FB501A40108
S1130900689412F876956795579547951694D1F79C
S11309109A01AB01281B390B4A0B5B0BEE81FF815B
S1130920A281B381D8D52B013C01D501C4016894BF
S113093013F8B695A795979587951694D1F7BC01AA
S1130940CD016C197D098E099F099B01AC0188D5E5
S11309506B017C01992334F4FFEFCF0EFFE0DF1E1F
S1130960E11CF11CA7019601012E1CE05595479549
S1130970379527951A95D1F7102DEE81FF81A48123
S1130980B581A9D573016201772034F4FFEFCF0E4E
S1130990F7E0DF1EE11CF11C0B2EBBE0F594E7949D
S11309A0D794C794BA95D1F7B02D4B015C01992324
S11309B034F42FEF820E2FE3921EA11CB11CB5015B
S11309C0A401032E3EE075956795579547953A9592
S11309D0D1F7302DD701C601840F951FA61FB71F6D
S11309E0EE81FF8181A392A3A3A3B4A3AC01BD01B3
S11309F0440F551F661F771F440F551F661F771F2F
S1130A00840F951FA61FB71F80589F4FAF4FBF4F2E
S1130A10AC01BD01BB2324F441505F4F6F4F7F4FA6
S1130A20BB2777FDBA95A72F962F852F8533F1E243
S1130A309F07A105B10524F084E391E2A0E0B0E0B2
S1130A40803620EF92072FEFA207B20724F480E646
S1130A5090EFAFEFBFEFF10184839583A683B78353
S1130A60F981F0FFE0C1AE81BF819196CD90DD9018
S1130A70ED90FC909497FF202CF4BFEFCB1ADB0A87
S1130A80EB0AFB0AF594E794D794C794EAEFDE1ACD
S1130A90E108F108D701C601FF201CF40396A11D4B
S1130AA0B11DBC01CD019595879577956795959571
S1130AB08795779567959B01AC01D2D44B015C0176
S1130AC0AE81BF8150960D90BC91A02DB987A887A7
S1130AD0EE81FF810684F785E02DFB83EA83AE81F6
S1130AE0BF811C960D90BC91A02DBD83AC83EE817B
S1130AF0FF8122853385442737FD4095542FDC013F
S1130B00CB01BB2024F48150904EAF4FBF4FBC01AA
S1130B10CD01052E5DE095958795779567955A9556
S1130B20D1F7502D9DD42B013C0199232CF4F7E0EF
S1130B304F0E511C611C711C689412F875946794D3
S1130B40579447941694D1F7EE81FF81A085B1851F
S1130B50A7019601C0D49B01AC01992324F42F5F13
S1130B603F4F4F4F5F4FDA01C901B595A795979550
S1130B708795480E591E6A1E7B1ED301C201772039
S1130B801CF40197AC4FBF4F072E72E1B595A795A2
S1130B90979587957A95D1F7702D9C01AD013058C2
S1130BA04F4F5F4FEE81FF81A681B7818AD42B011D
S1130BB03C01992334F4FFEF4F0EFFE75F1E611CE5
S1130BC0711C032E3FE075946794579447943A95AB
S1130BD0D1F7302D411451046104710409F415C195
S1130BE0D501C401BB2024F48150984FAF4FBF4FAF
S1130BF09C01AD01012E1BE055954795379527952E
S1130C001A95D1F7102DA885B98565D44B015C01DF
S1130C10AA81BB81A70196015ED4DC01CB01880FB8
S1130C20991FAA1FBB1F880E991EAA1EBB1ED501A1
S1130C30C401BB201CF40396A11DB11DB595A79555
S1130C4097958795B595A79597958795F8014081D0
S1130C50518162817381C12CD12C76016894E4F8AE
S1130C60C41AD50AE60AF70AEC81FD81AF016627AA
S1130C7057FD6095762FBA0155274427840F951F99
S1130C80A61FB71FAC01BD01BB2324F44150504F34
S1130C906F4F7F4FDB01CA01072E7CE0B595A79506
S1130CA0979587957A95D1F7702DA7019601281B02
S1130CB0390B4A0B5B0BA5E3BCE003D4992354F036
S1130CC0660F771F881F991FA3019201D8D369016A
S1130CD07A0109C0A3019201D2D369017A01CC0C33
S1130CE0DD1CEE1CFF1CAE81BF815696ED91FC917C
S1130CF05797C701B601689412F89695879577952A
S1130D0067951694D1F79B01AC01AAD39B01AC0162
S1130D10012E1DE056954795379527951A95D1F7DD
S1130D20102DDF01D8D34B015C01992334F4BFEFBC
S1130D308B0EBFE09B1EA11CB11C072E7CE0B5945A
S1130D40A794979487947A95D1F7702DEE81FF81BB
S1130D50A489B589A7019601569547953795279596
S1130D605695479537952795B6D32B013C01992382
S1130D7034F4FFEF4F0EFFE15F1E611C711CD301C1
S1130D80C201072E7DE0B595A795979587957A952D
S1130D90D1F7702D880E991EAA1EBB1EAE81BF818D
S1130DA052964D915C915397662757FD6095762F27
S1130DB0840E951EA61EB71ED501C401BB201CF4CB
S1130DC00F96A11DB11D689413F8B595A795979535
S1130DD087951694D1F7C80ED91EEA1EFB1EB0E300
S1130DE0CB16B5E7DB06E104F104A0F0D701C60198
S1130DF0E1EBCE16EDEADE06E1E0EE06F10470F07A
S1130E0080EB9DEAA1E0B0E009C080E395E7A0E0B3
S1130E10B0E004C080E395E7A0E0B0E0F101808396
S1130E209183A283B383F981F2FF52C1AE81BF8162
S1130E309196CD90DD90ED90FC909497BCE2DB1AF6
S1130E40B1E0EB0AF108F80180849184A284B384B0
S1130E50072E7EE0880C991CAA1CBB1C7A95D1F73E
S1130E60702DAE81BF815C964D915C915D97662734
S1130E7057FD6095762F032E34E1440F551F661FEE
S1130E80771F3A95D1F7302D841A950AA60AB70A26
S1130E905E960D90BC91A02DA70196011CD3A501CF
S1130EA09401261B370B480B590BDA01C901905CDE
S1130EB0AF4FBF4F4C015D01BB2334F43FEF830EB2
S1130EC03FE7931EA11CB11C072E7FE0B594A794A5
S1130ED0979487947A95D1F7702DEE81FF81A0A124
S1130EE0BB27A7FDB095A7019601F5D22B013C01C4
S1130EF0992334F4FFEF4F0EF3E05F1E611C711C65
S1130F00032E3AE075946794579447943A95D1F731
S1130F10302DEE81FF81A38DB0E0A7019601D1D2DF
S1130F206B017C01992334F4FFEFCF0EF7E0DF1E51
S1130F30E11CF11CD701C601072E7BE0B595A795EE
S1130F40979587957A95D1F7702DBC01CD0170588E
S1130F508F4F9F4FA301920183D26B017C01992390
S1130F6034F42FEFC20E23E0D21EE11CF11CD70192
S1130F70C601072E7AE0B595A795979587957A953A
S1130F80D1F7702D9C01AD01405E5F4FEE81FF8172
S1130F90A18DB28DA0D26B017C01F0E2DF0EE11CC9
S1130FA0F11CD701C601FF2024F48150904CAF4FAF
S1130FB0BF4FBC01CD01052E5EE0959587957795D1
S1130FC067955A95D1F7502DA501940149D26B012B
S1130FD07C01DC01CB01FF2024F481509048AF4F09
S1130FE0BF4FBC01CD01052E5FE0959587957795A0
S1130FF067955A95D1F7502D9B01AC0131D28B01E5
S11310009C01992324F401581F4F2F4F3F4FA901EE
S11310109801689416F85595479537952795169431
S1131020D1F7EE81FF81A08DB0E04BD24B015C0182
S113103099232CF4FFE08F0E911CA11CB11CD50147
S1131040C401689413F8B595A79597958795169458
S1131050D1F7C81AD90AEA0AFB0A1AF4C12CD12C0E
S1131060760121E0C216D104E10429E1F2063CF044
S11310700F2EC12CD12CE12CF9E1FF2EF02DD7013C
S1131080C601FF2024F48150904FAF4FBF4F072E6D
S11310907CE0B595A795979587957A95D1F7702DAE
S11310A0813030E9930731E0A307B10520F080E0F7
S11310B090E9A1E0B0E0F10180879187A287B3872E
S11310C080E007C08FEF05C08FEF03C08FEF01C032
S11310D080E029960FB6F894DEBF0FBECDBFDF9136
S11310E0CF911F910F91FF90EF90DF90CF90BF9021
S11310F0AF909F908F907F906F905F904F903F90B4
S11311002F900895DF92EF92FF920F931F93CF9346
S1131110DF93CDB7DEB764970FB6F894DEBF0FBE8A
S1131120CDBFD82E7B018A01FE01319698E0DF0104
S11311301D929A95E9F738969CE0DF011D929A95E5
S1131140E9F7CA0181D781111DC0E114F104E1F06E
S1131150980148E050E0BE016F5F7F4F87EF8DD765
S1131160811113C0BE01675F7F4FCE01019607DB7B
S11311709801275F3F4FA701BE01675F7F4F8D2D09
S11311806DDB03C08FEF01C08FEF64960FB6F89448
S1131190DEBF0FBECDBFDF91CF911F910F91FF90A6
S11311A0EF90DF900895CF93DF93EC0181E088AB5B
S11311B095E09EA792E09FA794E099AB8AABBE010D
S11311C08FE15EDABE0183E09BDADF91CF9108956F
S11311D0CF93DF93CDB7DEB72C970FB6F894DEBF6D
S11311E00FBECDBF8C9AF89467D06CE070E080E0BD
S11311F090E0B0D034D0789410922B0110922C014E
S11312008FE399E090932E0180932D019093300108
S113121080932F0185E699E0909332018093310108
S11312208AE291E0DAD8809360008AE291E0BBDF41
S113123010E18DE0B3D08AE0B1D082B3812782BBC4
S113124068EE73E080E090E040D04AE251E0BE01F5
S11312506F5F7F4F87E056DF80936000EACF87B3EC
S11312608C6287BB1DB81EB8709A8DB183658DB929
S1131270B89AB99A8D9AC09AC19A959A089581118B
S113128001C0C0986FB9779BFECF9FB1211531057E
S113129071F0FA01240F351FDF0190819FB9779B0C
S11312A0FECF9FB19C933196E217F307A9F7811102
S11312B001C0C09A80E008958BE085BD14BC8DE721
S11312C083BD89B7806889BF08950F931F930091E8
S11312D06100109162002091630030916400AB01C1
S11312E0BC01400F511F621F731F809161009091D8
S11312F06200A0916300B091640084179507A6076B
S1131300B70798F31F910F9108951F920F920FB68C
S11313100F9211248F939F93AF93BF938091610099
S113132090916200A0916300B09164000196A11DA8
S1131330B11D8093610090936200A0936300B09309
S11313406400BF91AF919F918F910F900FBE0F904A
S11313501F9018950F931F931BB81AB810BC072F32
S1131360182F292F332700BD69B982E08BB988E98A
S11313708AB986E880BD10926500109266001092CA
S1131380670010926800109269001F910F910895F0
S11313908091690090916800891B08951F93CF93F1
S11313A0DF93182FC0E4D0E0F3DF9E01281B31093E
S11313B023303105CCF3E0916900EF73F0E0E6519E
S11313C0FF4F1083809169008F5F80936900559A65
S11313D0DF91CF911F9108951F920F920FB60F9234
S11313E011248F939F93EF93FF93909169008091C1
S11313F06800981771F0E0916800EF73F0E0E6512F
S1131400FF4F80818CB9809168008F5F8093680062
S113141001C05598FF91EF919F918F910F900FBE4E
S11314200F901F9018951F920F920FB60F921124D0
S11314308F93EF93FF93E0916700EF77F0E08CB127
S1131440E659FF4F8083809167008F5F8093670028
S1131450FF91EF918F910F900FBE0F901F901895F1
S1131460DB018F939F932DD0BF91AF91A29F800DED
S1131470911DA39F900DB29F900D11240895A1E298
S11314801A2EAA1BBB1BFD010DC0AA1FBB1FEE1FFA
S1131490FF1FA217B307E407F50720F0A21BB30B45
S11314A0E40BF50B661F771F881F991F1A9469F7C1
S11314B060957095809590959B01AC01BD01CF011D
S11314C008950FD0A59F900DB49F900DA49F800DFB
S11314D0911D11240895B7FFF4CFF3DF821B930B02
S11314E00895A29FB001B39FC001A39F01D0B29FF2
S11114F0700D811D1124911D0895F894FFCFF5
S9030000FC
